{
    "abi": [
        {
            "type": "constructor",
            "inputs": [
                {
                    "name": "_name",
                    "type": "string",
                    "internalType": "string"
                },
                {
                    "name": "_paperUri",
                    "type": "string",
                    "internalType": "string"
                },
                {
                    "name": "_topic",
                    "type": "string",
                    "internalType": "string"
                },
                {
                    "name": "_owner",
                    "type": "address",
                    "internalType": "address"
                },
                {
                    "name": "_contributers",
                    "type": "address[]",
                    "internalType": "address[]"
                }
            ],
            "stateMutability": "nonpayable"
        },
        {
            "type": "fallback",
            "stateMutability": "payable"
        },
        {
            "type": "receive",
            "stateMutability": "payable"
        },
        {
            "type": "function",
            "name": "addFeedback",
            "inputs": [
                {
                    "name": "feedback",
                    "type": "string",
                    "internalType": "string"
                }
            ],
            "outputs": [],
            "stateMutability": "nonpayable"
        },
        {
            "type": "function",
            "name": "addMentor",
            "inputs": [
                {
                    "name": "mentorName",
                    "type": "string",
                    "internalType": "string"
                },
                {
                    "name": "mentorAddress",
                    "type": "address",
                    "internalType": "address"
                }
            ],
            "outputs": [],
            "stateMutability": "payable"
        },
        {
            "type": "function",
            "name": "addProgress",
            "inputs": [
                {
                    "name": "content",
                    "type": "string",
                    "internalType": "string"
                }
            ],
            "outputs": [],
            "stateMutability": "nonpayable"
        },
        {
            "type": "function",
            "name": "contributers",
            "inputs": [
                {
                    "name": "",
                    "type": "uint256",
                    "internalType": "uint256"
                }
            ],
            "outputs": [
                {
                    "name": "",
                    "type": "address",
                    "internalType": "address"
                }
            ],
            "stateMutability": "view"
        },
        {
            "type": "function",
            "name": "feedbacks",
            "inputs": [
                {
                    "name": "",
                    "type": "uint256",
                    "internalType": "uint256"
                }
            ],
            "outputs": [
                {
                    "name": "",
                    "type": "string",
                    "internalType": "string"
                }
            ],
            "stateMutability": "view"
        },
        {
            "type": "function",
            "name": "fund",
            "inputs": [],
            "outputs": [],
            "stateMutability": "payable"
        },
        {
            "type": "function",
            "name": "getAllMentors",
            "inputs": [],
            "outputs": [
                {
                    "name": "",
                    "type": "tuple[]",
                    "internalType": "struct Project.Mentor[]",
                    "components": [
                        {
                            "name": "_address",
                            "type": "address",
                            "internalType": "address"
                        },
                        {
                            "name": "_name",
                            "type": "string",
                            "internalType": "string"
                        }
                    ]
                }
            ],
            "stateMutability": "view"
        },
        {
            "type": "function",
            "name": "mentors",
            "inputs": [
                {
                    "name": "",
                    "type": "uint256",
                    "internalType": "uint256"
                }
            ],
            "outputs": [
                {
                    "name": "_address",
                    "type": "address",
                    "internalType": "address"
                },
                {
                    "name": "_name",
                    "type": "string",
                    "internalType": "string"
                }
            ],
            "stateMutability": "view"
        },
        {
            "type": "function",
            "name": "name",
            "inputs": [],
            "outputs": [
                {
                    "name": "",
                    "type": "string",
                    "internalType": "string"
                }
            ],
            "stateMutability": "view"
        },
        {
            "type": "function",
            "name": "owner",
            "inputs": [],
            "outputs": [
                {
                    "name": "",
                    "type": "address",
                    "internalType": "address"
                }
            ],
            "stateMutability": "view"
        },
        {
            "type": "function",
            "name": "paperUri",
            "inputs": [],
            "outputs": [
                {
                    "name": "",
                    "type": "string",
                    "internalType": "string"
                }
            ],
            "stateMutability": "view"
        },
        {
            "type": "function",
            "name": "progressReports",
            "inputs": [
                {
                    "name": "",
                    "type": "uint256",
                    "internalType": "uint256"
                }
            ],
            "outputs": [
                {
                    "name": "content",
                    "type": "string",
                    "internalType": "string"
                },
                {
                    "name": "timestamp",
                    "type": "uint256",
                    "internalType": "uint256"
                }
            ],
            "stateMutability": "view"
        },
        {
            "type": "function",
            "name": "topic",
            "inputs": [],
            "outputs": [
                {
                    "name": "",
                    "type": "string",
                    "internalType": "string"
                }
            ],
            "stateMutability": "view"
        },
        {
            "type": "function",
            "name": "withdrawAmount",
            "inputs": [
                {
                    "name": "amount",
                    "type": "uint256",
                    "internalType": "uint256"
                }
            ],
            "outputs": [],
            "stateMutability": "nonpayable"
        },
        {
            "type": "event",
            "name": "AmountWithdrawn",
            "inputs": [
                {
                    "name": "amount",
                    "type": "uint256",
                    "indexed": false,
                    "internalType": "uint256"
                }
            ],
            "anonymous": false
        },
        {
            "type": "event",
            "name": "FundingReceived",
            "inputs": [
                {
                    "name": "amount",
                    "type": "uint256",
                    "indexed": false,
                    "internalType": "uint256"
                },
                {
                    "name": "funder",
                    "type": "address",
                    "indexed": true,
                    "internalType": "address"
                }
            ],
            "anonymous": false
        },
        {
            "type": "event",
            "name": "MentorAdded",
            "inputs": [
                {
                    "name": "",
                    "type": "address",
                    "indexed": true,
                    "internalType": "address"
                }
            ],
            "anonymous": false
        }
    ],
    "bytecode": {
        "object": "0x60a060405234801561001057600080fd5b5060405161153c38038061153c83398101604081905261002f916101e2565b600061003b86826103b5565b50600161004885826103b5565b506001600160a01b038216608052600261006284826103b5565b508051610076906003906020840190610081565b505050505050610473565b8280548282559060005260206000209081019282156100d6579160200282015b828111156100d657825182546001600160a01b0319166001600160a01b039091161782556020909201916001909101906100a1565b506100e29291506100e6565b5090565b5b808211156100e257600081556001016100e7565b634e487b7160e01b600052604160045260246000fd5b604051601f8201601f191681016001600160401b0381118282101715610139576101396100fb565b604052919050565b600082601f83011261015257600080fd5b81516001600160401b0381111561016b5761016b6100fb565b61017e601f8201601f1916602001610111565b81815284602083860101111561019357600080fd5b60005b828110156101b257602081860181015183830182015201610196565b506000918101602001919091529392505050565b80516001600160a01b03811681146101dd57600080fd5b919050565b600080600080600060a086880312156101fa57600080fd5b85516001600160401b0381111561021057600080fd5b61021c88828901610141565b602088015190965090506001600160401b0381111561023a57600080fd5b61024688828901610141565b604088015190955090506001600160401b0381111561026457600080fd5b61027088828901610141565b93505061027f606087016101c6565b60808701519092506001600160401b0381111561029b57600080fd5b8601601f810188136102ac57600080fd5b80516001600160401b038111156102c5576102c56100fb565b8060051b6102d560208201610111565b9182526020818401810192908101908b8411156102f157600080fd5b6020850194505b8385101561031a57610309856101c6565b8252602094850194909101906102f8565b80955050505050509295509295909350565b600181811c9082168061034057607f821691505b60208210810361036057634e487b7160e01b600052602260045260246000fd5b50919050565b601f8211156103b057806000526020600020601f840160051c8101602085101561038d5750805b601f840160051c820191505b818110156103ad5760008155600101610399565b50505b505050565b81516001600160401b038111156103ce576103ce6100fb565b6103e2816103dc845461032c565b84610366565b6020601f82116001811461041657600083156103fe5750848201515b600019600385901b1c1916600184901b1784556103ad565b600084815260208120601f198516915b828110156104465787850151825560209485019460019092019101610426565b50848210156104645786840151600019600387901b60f8161c191681555b50505050600190811b01905550565b6080516110a061049c600039600081816101db01528181610545015261060701526110a06000f3fe6080604052600436106100d55760003560e01c80638da5cb5b11610079578063c12d51ad11610056578063c12d51ad1461021a578063c998c2c51461023a578063da7d671e14610268578063f171b8591461029657005b80638da5cb5b146101c9578063b60d4288146101fd578063bf63a5771461020557005b80630c107357116100b25780630c1073571461013c5780631fbed579146101515780632bb8b0dc1461018957806354d7c366146101a957005b806302e34182146100de5780630562b9f7146100f157806306fdde031461011157005b366100dc57005b005b6100dc6100ec366004610c17565b6102b8565b3480156100fd57600080fd5b506100dc61010c366004610ca9565b610543565b34801561011d57600080fd5b506101266106f0565b6040516101339190610d08565b60405180910390f35b34801561014857600080fd5b5061012661077e565b34801561015d57600080fd5b5061017161016c366004610ca9565b61078b565b6040516001600160a01b039091168152602001610133565b34801561019557600080fd5b506101266101a4366004610ca9565b6107b5565b3480156101b557600080fd5b506100dc6101c4366004610d38565b6107ce565b3480156101d557600080fd5b506101717f000000000000000000000000000000000000000000000000000000000000000081565b6100dc6107f5565b34801561021157600080fd5b50610126610908565b34801561022657600080fd5b506100dc610235366004610d38565b610915565b34801561024657600080fd5b5061025a610255366004610ca9565b610963565b604051610133929190610df1565b34801561027457600080fd5b50610288610283366004610ca9565b610a07565b604051610133929190610e13565b3480156102a257600080fd5b506102ab610ab6565b6040516101339190610e3f565b6601c6bf52634000341161030f5760405162461bcd60e51b8152602060048201526019602482015278056616c7565206d757374206265206d6f7265207468616e203603c1b60448201526064015b60405180910390fd5b6000306103236601c6bf5263400034610eda565b604051600081818185875af1925050503d806000811461035f576040519150601f19603f3d011682016040523d82523d6000602084013e610364565b606091505b50509050806103ab5760405162461bcd60e51b8152602060048201526013602482015272151c985b9cd858dd1a5bdb9cc811985a5b1959606a1b6044820152606401610306565b604051600090734ca7e449c8d237f3e0235cf07173a79d93d9ccfc906601c6bf52634000908381818185875af1925050503d8060008114610408576040519150601f19603f3d011682016040523d82523d6000602084013e61040d565b606091505b50509050806104545760405162461bcd60e51b8152602060048201526013602482015272151c985b9cd858dd1a5bdb9cc811985a5b1959606a1b6044820152606401610306565b60006040518060400160405280856001600160a01b0316815260200187878080601f01602080910402602001604051908101604052809392919081815260200183838082843760009201829052509390945250506007805493945084936006935090826104c083610ef3565b909155508152602080820192909252604001600020825181546001600160a01b0319166001600160a01b039091161781559082015160018201906105049082610f95565b50506040516001600160a01b03861691507f4df3f3208bfbe9457b85364190a65e66a3e7a7cded1cf16b59627bc99bad5db990600090a2505050505050565b7f00000000000000000000000000000000000000000000000000000000000000006001600160a01b031633146105bb5760405162461bcd60e51b815260206004820152601760248201527f4f6e6c79206f776e65722063616e2077697468647261770000000000000000006044820152606401610306565b80804710156106035760405162461bcd60e51b8152602060048201526014602482015273496e73756666696369656e742062616c616e636560601b6044820152606401610306565b60007f00000000000000000000000000000000000000000000000000000000000000006001600160a01b03168360405160006040518083038185875af1925050503d8060008114610670576040519150601f19603f3d011682016040523d82523d6000602084013e610675565b606091505b50509050806106b85760405162461bcd60e51b815260206004820152600f60248201526e15da5d1a191c985dc811985a5b1959608a1b6044820152606401610306565b6040518381527f3e92aa4db3477ddd7c90d0ded7b985612c042e99cdeed9408343c650bdda73b99060200160405180910390a1505050565b600080546106fd90610f0c565b80601f016020809104026020016040519081016040528092919081815260200182805461072990610f0c565b80156107765780601f1061074b57610100808354040283529160200191610776565b820191906000526020600020905b81548152906001019060200180831161075957829003601f168201915b505050505081565b600180546106fd90610f0c565b6003818154811061079b57600080fd5b6000918252602090912001546001600160a01b0316905081565b600460205260009081526040902080546106fd90610f0c565b600580546001810190915560009081526004602052604090206107f18282610f95565b5050565b600034116108415760405162461bcd60e51b8152602060048201526019602482015278056616c7565206d757374206265206d6f7265207468616e203603c1b6044820152606401610306565b604051600090309034908381818185875af1925050503d8060008114610883576040519150601f19603f3d011682016040523d82523d6000602084013e610888565b606091505b50509050806108d05760405162461bcd60e51b81526020600482015260146024820152734661696c656420746f2073656e642066756e647360601b6044820152606401610306565b60405134815233907f39c1505ede968a62be4c7e53d17f259021f2ff3e92b10bd0824037347813cb2f9060200160405180910390a250565b600280546106fd90610f0c565b6040805180820182528281524260208083019190915260098054600181019091556000908152600890915291909120815181906109529082610f95565b506020820151816001015590505050565b60086020526000908152604090208054819061097e90610f0c565b80601f01602080910402602001604051908101604052809291908181526020018280546109aa90610f0c565b80156109f75780601f106109cc576101008083540402835291602001916109f7565b820191906000526020600020905b8154815290600101906020018083116109da57829003601f168201915b5050505050908060010154905082565b600660205260009081526040902080546001820180546001600160a01b039092169291610a3390610f0c565b80601f0160208091040260200160405190810160405280929190818152602001828054610a5f90610f0c565b8015610aac5780601f10610a8157610100808354040283529160200191610aac565b820191906000526020600020905b815481529060010190602001808311610a8f57829003601f168201915b5050505050905082565b6060600060075467ffffffffffffffff811115610ad557610ad5610d22565b604051908082528060200260200182016040528015610b1b57816020015b604080518082019091526000815260606020820152815260200190600190039081610af35790505b5060075490915060005b81811015610c0f57600081815260066020908152604091829020825180840190935280546001600160a01b031683526001810180549192840191610b6890610f0c565b80601f0160208091040260200160405190810160405280929190818152602001828054610b9490610f0c565b8015610be15780601f10610bb657610100808354040283529160200191610be1565b820191906000526020600020905b815481529060010190602001808311610bc457829003601f168201915b505050505081525050838281518110610bfc57610bfc611054565b6020908102919091010152600101610b25565b509092915050565b600080600060408486031215610c2c57600080fd5b833567ffffffffffffffff811115610c4357600080fd5b8401601f81018613610c5457600080fd5b803567ffffffffffffffff811115610c6b57600080fd5b866020828401011115610c7d57600080fd5b6020918201945092508401356001600160a01b0381168114610c9e57600080fd5b809150509250925092565b600060208284031215610cbb57600080fd5b5035919050565b6000815180845260005b81811015610ce857602081850181015186830182015201610ccc565b506000602082860101526020601f19601f83011685010191505092915050565b602081526000610d1b6020830184610cc2565b9392505050565b634e487b7160e01b600052604160045260246000fd5b600060208284031215610d4a57600080fd5b813567ffffffffffffffff811115610d6157600080fd5b8201601f81018413610d7257600080fd5b803567ffffffffffffffff811115610d8c57610d8c610d22565b604051601f8201601f19908116603f0116810167ffffffffffffffff81118282101715610dbb57610dbb610d22565b604052818152828201602001861015610dd357600080fd5b81602084016020830137600091810160200191909152949350505050565b604081526000610e046040830185610cc2565b90508260208301529392505050565b6001600160a01b0383168152604060208201819052600090610e3790830184610cc2565b949350505050565b6000602082016020835280845180835260408501915060408160051b86010192506020860160005b82811015610eb857868503603f19018452815180516001600160a01b03168652602090810151604091870182905290610ea290870182610cc2565b9550506020938401939190910190600101610e67565b50929695505050505050565b634e487b7160e01b600052601160045260246000fd5b81810381811115610eed57610eed610ec4565b92915050565b600060018201610f0557610f05610ec4565b5060010190565b600181811c90821680610f2057607f821691505b602082108103610f4057634e487b7160e01b600052602260045260246000fd5b50919050565b601f821115610f9057806000526020600020601f840160051c81016020851015610f6d5750805b601f840160051c820191505b81811015610f8d5760008155600101610f79565b50505b505050565b815167ffffffffffffffff811115610faf57610faf610d22565b610fc381610fbd8454610f0c565b84610f46565b6020601f821160018114610ff75760008315610fdf5750848201515b600019600385901b1c1916600184901b178455610f8d565b600084815260208120601f198516915b828110156110275787850151825560209485019460019092019101611007565b50848210156110455786840151600019600387901b60f8161c191681555b50505050600190811b01905550565b634e487b7160e01b600052603260045260246000fdfea264697066735822122033aec2432caa9fe2fe7e0d5b7bd08755b988ca3100fb5f53597f45d8789fd92464736f6c634300081a0033",
        "linkReferences": {}
    },
    "methodIdentifiers": {
        "addFeedback(string)": "54d7c366",
        "addMentor(string,address)": "02e34182",
        "addProgress(string)": "c12d51ad",
        "contributers(uint256)": "1fbed579",
        "feedbacks(uint256)": "2bb8b0dc",
        "fund()": "b60d4288",
        "getAllMentors()": "f171b859",
        "mentors(uint256)": "da7d671e",
        "name()": "06fdde03",
        "owner()": "8da5cb5b",
        "paperUri()": "0c107357",
        "progressReports(uint256)": "c998c2c5",
        "topic()": "bf63a577",
        "withdrawAmount(uint256)": "0562b9f7"
    },
    "id": 0
}