{
    "abi": [
        {
            "type": "function",
            "name": "createUser",
            "inputs": [
                {
                    "name": "_name",
                    "type": "string",
                    "internalType": "string"
                },
                {
                    "name": "_email",
                    "type": "string",
                    "internalType": "string"
                },
                {
                    "name": "_userType",
                    "type": "uint8",
                    "internalType": "enum Users.Type"
                }
            ],
            "outputs": [],
            "stateMutability": "nonpayable"
        },
        {
            "type": "function",
            "name": "getAllUsers",
            "inputs": [],
            "outputs": [
                {
                    "name": "",
                    "type": "tuple[]",
                    "internalType": "struct Users.UserType[]",
                    "components": [
                        {
                            "name": "walletAddress",
                            "type": "address",
                            "internalType": "address"
                        },
                        {
                            "name": "name",
                            "type": "string",
                            "internalType": "string"
                        },
                        {
                            "name": "email",
                            "type": "string",
                            "internalType": "string"
                        },
                        {
                            "name": "userType",
                            "type": "uint8",
                            "internalType": "enum Users.Type"
                        }
                    ]
                }
            ],
            "stateMutability": "view"
        },
        {
            "type": "function",
            "name": "getUser",
            "inputs": [
                {
                    "name": "_walletAddress",
                    "type": "address",
                    "internalType": "address"
                }
            ],
            "outputs": [
                {
                    "name": "",
                    "type": "tuple",
                    "internalType": "struct Users.UserType",
                    "components": [
                        {
                            "name": "walletAddress",
                            "type": "address",
                            "internalType": "address"
                        },
                        {
                            "name": "name",
                            "type": "string",
                            "internalType": "string"
                        },
                        {
                            "name": "email",
                            "type": "string",
                            "internalType": "string"
                        },
                        {
                            "name": "userType",
                            "type": "uint8",
                            "internalType": "enum Users.Type"
                        }
                    ]
                }
            ],
            "stateMutability": "view"
        },
        {
            "type": "function",
            "name": "userCount",
            "inputs": [],
            "outputs": [
                {
                    "name": "",
                    "type": "uint256",
                    "internalType": "uint256"
                }
            ],
            "stateMutability": "view"
        },
        {
            "type": "function",
            "name": "users",
            "inputs": [
                {
                    "name": "",
                    "type": "address",
                    "internalType": "address"
                }
            ],
            "outputs": [
                {
                    "name": "walletAddress",
                    "type": "address",
                    "internalType": "address"
                },
                {
                    "name": "name",
                    "type": "string",
                    "internalType": "string"
                },
                {
                    "name": "email",
                    "type": "string",
                    "internalType": "string"
                },
                {
                    "name": "userType",
                    "type": "uint8",
                    "internalType": "enum Users.Type"
                }
            ],
            "stateMutability": "view"
        },
        {
            "type": "event",
            "name": "UserCreated",
            "inputs": [
                {
                    "name": "walletAddress",
                    "type": "address",
                    "indexed": true,
                    "internalType": "address"
                },
                {
                    "name": "name",
                    "type": "string",
                    "indexed": false,
                    "internalType": "string"
                },
                {
                    "name": "userType",
                    "type": "uint8",
                    "indexed": false,
                    "internalType": "enum Users.Type"
                }
            ],
            "anonymous": false
        }
    ],
    "bytecode": {
        "object": "0x6080604052348015600f57600080fd5b50610c828061001f6000396000f3fe608060405234801561001057600080fd5b50600436106100575760003560e01c806307973ccf1461005c5780636f77926b14610078578063a87430ba14610098578063e2842d79146100bb578063e8870f8b146100d0575b600080fd5b61006560025481565b6040519081526020015b60405180910390f35b61008b6100863660046107f6565b6100e5565b60405161006f9190610901565b6100ab6100a63660046107f6565b61027a565b60405161006f9493929190610914565b6100c36103c0565b60405161006f9190610963565b6100e36100de366004610a11565b610600565b005b6100ed6107b5565b6001600160a01b0380831660009081526020818152604091829020825160808101909352805490931682526001830180549293929184019161012e90610a9e565b80601f016020809104026020016040519081016040528092919081815260200182805461015a90610a9e565b80156101a75780601f1061017c576101008083540402835291602001916101a7565b820191906000526020600020905b81548152906001019060200180831161018a57829003601f168201915b505050505081526020016002820180546101c090610a9e565b80601f01602080910402602001604051908101604052809291908181526020018280546101ec90610a9e565b80156102395780601f1061020e57610100808354040283529160200191610239565b820191906000526020600020905b81548152906001019060200180831161021c57829003601f168201915b5050509183525050600382015460209091019060ff1660018111156102605761026061086c565b60018111156102715761027161086c565b90525092915050565b600060208190529081526040902080546001820180546001600160a01b0390921692916102a690610a9e565b80601f01602080910402602001604051908101604052809291908181526020018280546102d290610a9e565b801561031f5780601f106102f45761010080835404028352916020019161031f565b820191906000526020600020905b81548152906001019060200180831161030257829003601f168201915b50505050509080600201805461033490610a9e565b80601f016020809104026020016040519081016040528092919081815260200182805461036090610a9e565b80156103ad5780601f10610382576101008083540402835291602001916103ad565b820191906000526020600020905b81548152906001019060200180831161039057829003601f168201915b5050506003909301549192505060ff1684565b6060600060025467ffffffffffffffff8111156103df576103df610ad2565b60405190808252806020026020018201604052801561041857816020015b6104056107b5565b8152602001906001900390816103fd5790505b50905060005b6002548110156105fa576000806001838154811061043e5761043e610ae8565b60009182526020808320909101546001600160a01b039081168452838201949094526040928301909120825160808101909352805490931682526001830180549293929184019161048e90610a9e565b80601f01602080910402602001604051908101604052809291908181526020018280546104ba90610a9e565b80156105075780601f106104dc57610100808354040283529160200191610507565b820191906000526020600020905b8154815290600101906020018083116104ea57829003601f168201915b5050505050815260200160028201805461052090610a9e565b80601f016020809104026020016040519081016040528092919081815260200182805461054c90610a9e565b80156105995780601f1061056e57610100808354040283529160200191610599565b820191906000526020600020905b81548152906001019060200180831161057c57829003601f168201915b5050509183525050600382015460209091019060ff1660018111156105c0576105c061086c565b60018111156105d1576105d161086c565b815250508282815181106105e7576105e7610ae8565b602090810291909101015260010161041e565b50919050565b6040518060800160405280336001600160a01b0316815260200186868080601f016020809104026020016040519081016040528093929190818152602001838380828437600092019190915250505090825250604080516020601f8701819004810282018101909252858152918101919086908690819084018382808284376000920191909152505050908252506020018260018111156106a3576106a361086c565b905233600090815260208181526040909120825181546001600160a01b0319166001600160a01b039091161781559082015160018201906106e49082610b4d565b50604082015160028201906106f99082610b4d565b50606082015160038201805460ff19166001838181111561071c5761071c61086c565b02179055505060018054808201825560008290527fb10e2d527612073b26eecdfd717e6a320cf44b4afac2b0732d9fcbe2b7fa0cf60180546001600160a01b03191633908117909155600280549092019091556040519091507f4734c94d88f62c0881093b87207fd9c5d0cbcab7ea0cf7f07370a2952c2f8d60906107a690889088908690610c0c565b60405180910390a25050505050565b604051806080016040528060006001600160a01b031681526020016060815260200160608152602001600060018111156107f1576107f161086c565b905290565b60006020828403121561080857600080fd5b81356001600160a01b038116811461081f57600080fd5b9392505050565b6000815180845260005b8181101561084c57602081850181015186830182015201610830565b506000602082860101526020601f19601f83011685010191505092915050565b634e487b7160e01b600052602160045260246000fd5b600281106108a057634e487b7160e01b600052602160045260246000fd5b9052565b60018060a01b03815116825260006020820151608060208501526108cb6080850182610826565b9050604083015184820360408601526108e48282610826565b91505060608301516108f96060860182610882565b509392505050565b60208152600061081f60208301846108a4565b6001600160a01b038516815260806020820181905260009061093890830186610826565b828103604084015261094a8186610826565b91505061095a6060830184610882565b95945050505050565b6000602082016020835280845180835260408501915060408160051b86010192506020860160005b828110156109bc57603f198786030184526109a78583516108a4565b9450602093840193919091019060010161098b565b50929695505050505050565b60008083601f8401126109da57600080fd5b50813567ffffffffffffffff8111156109f257600080fd5b602083019150836020828501011115610a0a57600080fd5b9250929050565b600080600080600060608688031215610a2957600080fd5b853567ffffffffffffffff811115610a4057600080fd5b610a4c888289016109c8565b909650945050602086013567ffffffffffffffff811115610a6c57600080fd5b610a78888289016109c8565b909450925050604086013560028110610a9057600080fd5b809150509295509295909350565b600181811c90821680610ab257607f821691505b6020821081036105fa57634e487b7160e01b600052602260045260246000fd5b634e487b7160e01b600052604160045260246000fd5b634e487b7160e01b600052603260045260246000fd5b601f821115610b4857806000526020600020601f840160051c81016020851015610b255750805b601f840160051c820191505b81811015610b455760008155600101610b31565b50505b505050565b815167ffffffffffffffff811115610b6757610b67610ad2565b610b7b81610b758454610a9e565b84610afe565b6020601f821160018114610baf5760008315610b975750848201515b600019600385901b1c1916600184901b178455610b45565b600084815260208120601f198516915b82811015610bdf5787850151825560209485019460019092019101610bbf565b5084821015610bfd5786840151600019600387901b60f8161c191681555b50505050600190811b01905550565b604081528260408201528284606083013760006060848301015260006060601f19601f8601168301019050610c446020830184610882565b94935050505056fea2646970667358221220d585bb8a6cff4babc2100bb17ba69b903ecab76f845f1bbdb0d4b2a4c3d2439c64736f6c634300081a0033",
        "linkReferences": {}
    },
    "methodIdentifiers": {
        "createUser(string,string,uint8)": "e8870f8b",
        "getAllUsers()": "e2842d79",
        "getUser(address)": "6f77926b",
        "userCount()": "07973ccf",
        "users(address)": "a87430ba"
    },
    "id": 0
}